{
  "_format": "hh-sol-artifact-1",
  "contractName": "DigitalGoods",
  "sourceName": "contracts/DigitalGoods.sol",
  "abi": [
    {
      "inputs": [],
      "stateMutability": "nonpayable",
      "type": "constructor"
    },
    {
      "anonymous": false,
      "inputs": [
        {
          "indexed": true,
          "internalType": "address",
          "name": "_product",
          "type": "address"
        },
        {
          "components": [
            {
              "internalType": "string",
              "name": "name",
              "type": "string"
            },
            {
              "internalType": "string",
              "name": "description",
              "type": "string"
            },
            {
              "internalType": "uint256",
              "name": "price",
              "type": "uint256"
            },
            {
              "internalType": "string",
              "name": "productID",
              "type": "string"
            },
            {
              "internalType": "string",
              "name": "ipfsCID",
              "type": "string"
            },
            {
              "internalType": "address payable",
              "name": "ownerAddress",
              "type": "address"
            },
            {
              "internalType": "bool",
              "name": "sold",
              "type": "bool"
            }
          ],
          "indexed": false,
          "internalType": "struct DigitalGoods.Product",
          "name": "product",
          "type": "tuple"
        }
      ],
      "name": "CreatedProduct",
      "type": "event"
    },
    {
      "anonymous": false,
      "inputs": [
        {
          "indexed": true,
          "internalType": "address",
          "name": "_seller",
          "type": "address"
        },
        {
          "components": [
            {
              "internalType": "string",
              "name": "name",
              "type": "string"
            },
            {
              "internalType": "address payable",
              "name": "sellerAddress",
              "type": "address"
            },
            {
              "internalType": "string",
              "name": "bio",
              "type": "string"
            },
            {
              "internalType": "string",
              "name": "sellerID",
              "type": "string"
            },
            {
              "internalType": "uint256",
              "name": "productsOwned",
              "type": "uint256"
            }
          ],
          "indexed": false,
          "internalType": "struct DigitalGoods.Seller",
          "name": "seller",
          "type": "tuple"
        }
      ],
      "name": "CreatedSeller",
      "type": "event"
    },
    {
      "inputs": [
        {
          "internalType": "address payable",
          "name": "_owner",
          "type": "address"
        },
        {
          "internalType": "address payable",
          "name": "_spender",
          "type": "address"
        }
      ],
      "name": "allowanceSpending",
      "outputs": [
        {
          "internalType": "uint256",
          "name": "",
          "type": "uint256"
        }
      ],
      "stateMutability": "view",
      "type": "function"
    },
    {
      "inputs": [
        {
          "internalType": "string",
          "name": "_comments",
          "type": "string"
        },
        {
          "internalType": "string",
          "name": "_commentTimeStamp",
          "type": "string"
        },
        {
          "internalType": "string",
          "name": "_sellerID",
          "type": "string"
        }
      ],
      "name": "createComment",
      "outputs": [],
      "stateMutability": "nonpayable",
      "type": "function"
    },
    {
      "inputs": [
        {
          "internalType": "string",
          "name": "_name",
          "type": "string"
        },
        {
          "internalType": "string",
          "name": "_description",
          "type": "string"
        },
        {
          "internalType": "uint256",
          "name": "_price",
          "type": "uint256"
        },
        {
          "internalType": "address",
          "name": "_ownerAddress",
          "type": "address"
        },
        {
          "internalType": "string",
          "name": "_ipfsCID",
          "type": "string"
        }
      ],
      "name": "createProduct",
      "outputs": [],
      "stateMutability": "nonpayable",
      "type": "function"
    },
    {
      "inputs": [
        {
          "internalType": "string",
          "name": "_name",
          "type": "string"
        },
        {
          "internalType": "string",
          "name": "_bio",
          "type": "string"
        },
        {
          "internalType": "address",
          "name": "_sellerAddress",
          "type": "address"
        }
      ],
      "name": "createSeller",
      "outputs": [],
      "stateMutability": "nonpayable",
      "type": "function"
    },
    {
      "inputs": [
        {
          "internalType": "string",
          "name": "_sellerID",
          "type": "string"
        }
      ],
      "name": "getAllCommentsByID",
      "outputs": [
        {
          "components": [
            {
              "internalType": "string",
              "name": "comments",
              "type": "string"
            },
            {
              "internalType": "string",
              "name": "commentTimeStamp",
              "type": "string"
            },
            {
              "internalType": "string",
              "name": "sellerID",
              "type": "string"
            }
          ],
          "internalType": "struct DigitalGoods.Review[]",
          "name": "",
          "type": "tuple[]"
        }
      ],
      "stateMutability": "view",
      "type": "function"
    },
    {
      "inputs": [
        {
          "internalType": "address",
          "name": "_owner",
          "type": "address"
        }
      ],
      "name": "getAllProduct",
      "outputs": [
        {
          "components": [
            {
              "internalType": "string",
              "name": "name",
              "type": "string"
            },
            {
              "internalType": "string",
              "name": "description",
              "type": "string"
            },
            {
              "internalType": "uint256",
              "name": "price",
              "type": "uint256"
            },
            {
              "internalType": "string",
              "name": "productID",
              "type": "string"
            },
            {
              "internalType": "string",
              "name": "ipfsCID",
              "type": "string"
            },
            {
              "internalType": "address payable",
              "name": "ownerAddress",
              "type": "address"
            },
            {
              "internalType": "bool",
              "name": "sold",
              "type": "bool"
            }
          ],
          "internalType": "struct DigitalGoods.Product[]",
          "name": "",
          "type": "tuple[]"
        }
      ],
      "stateMutability": "view",
      "type": "function"
    },
    {
      "inputs": [
        {
          "internalType": "address payable",
          "name": "_address",
          "type": "address"
        }
      ],
      "name": "getAllProductsByAddress",
      "outputs": [
        {
          "components": [
            {
              "internalType": "string",
              "name": "name",
              "type": "string"
            },
            {
              "internalType": "string",
              "name": "description",
              "type": "string"
            },
            {
              "internalType": "uint256",
              "name": "price",
              "type": "uint256"
            },
            {
              "internalType": "string",
              "name": "productID",
              "type": "string"
            },
            {
              "internalType": "string",
              "name": "ipfsCID",
              "type": "string"
            },
            {
              "internalType": "address payable",
              "name": "ownerAddress",
              "type": "address"
            },
            {
              "internalType": "bool",
              "name": "sold",
              "type": "bool"
            }
          ],
          "internalType": "struct DigitalGoods.Product[]",
          "name": "",
          "type": "tuple[]"
        }
      ],
      "stateMutability": "view",
      "type": "function"
    },
    {
      "inputs": [
        {
          "internalType": "address",
          "name": "_owner",
          "type": "address"
        }
      ],
      "name": "getAllSeller",
      "outputs": [
        {
          "components": [
            {
              "internalType": "string",
              "name": "name",
              "type": "string"
            },
            {
              "internalType": "address payable",
              "name": "sellerAddress",
              "type": "address"
            },
            {
              "internalType": "string",
              "name": "bio",
              "type": "string"
            },
            {
              "internalType": "string",
              "name": "sellerID",
              "type": "string"
            },
            {
              "internalType": "uint256",
              "name": "productsOwned",
              "type": "uint256"
            }
          ],
          "internalType": "struct DigitalGoods.Seller[]",
          "name": "",
          "type": "tuple[]"
        }
      ],
      "stateMutability": "view",
      "type": "function"
    },
    {
      "inputs": [
        {
          "internalType": "string",
          "name": "_productID",
          "type": "string"
        }
      ],
      "name": "getProductByID",
      "outputs": [
        {
          "components": [
            {
              "internalType": "string",
              "name": "name",
              "type": "string"
            },
            {
              "internalType": "string",
              "name": "description",
              "type": "string"
            },
            {
              "internalType": "uint256",
              "name": "price",
              "type": "uint256"
            },
            {
              "internalType": "string",
              "name": "productID",
              "type": "string"
            },
            {
              "internalType": "string",
              "name": "ipfsCID",
              "type": "string"
            },
            {
              "internalType": "address payable",
              "name": "ownerAddress",
              "type": "address"
            },
            {
              "internalType": "bool",
              "name": "sold",
              "type": "bool"
            }
          ],
          "internalType": "struct DigitalGoods.Product",
          "name": "",
          "type": "tuple"
        }
      ],
      "stateMutability": "view",
      "type": "function"
    },
    {
      "inputs": [
        {
          "internalType": "address payable",
          "name": "_address",
          "type": "address"
        }
      ],
      "name": "getSellerByAddress",
      "outputs": [
        {
          "components": [
            {
              "internalType": "string",
              "name": "name",
              "type": "string"
            },
            {
              "internalType": "address payable",
              "name": "sellerAddress",
              "type": "address"
            },
            {
              "internalType": "string",
              "name": "bio",
              "type": "string"
            },
            {
              "internalType": "string",
              "name": "sellerID",
              "type": "string"
            },
            {
              "internalType": "uint256",
              "name": "productsOwned",
              "type": "uint256"
            }
          ],
          "internalType": "struct DigitalGoods.Seller",
          "name": "",
          "type": "tuple"
        }
      ],
      "stateMutability": "view",
      "type": "function"
    },
    {
      "inputs": [
        {
          "internalType": "string",
          "name": "_sellerID",
          "type": "string"
        }
      ],
      "name": "getSellerByID",
      "outputs": [
        {
          "components": [
            {
              "internalType": "string",
              "name": "name",
              "type": "string"
            },
            {
              "internalType": "address payable",
              "name": "sellerAddress",
              "type": "address"
            },
            {
              "internalType": "string",
              "name": "bio",
              "type": "string"
            },
            {
              "internalType": "string",
              "name": "sellerID",
              "type": "string"
            },
            {
              "internalType": "uint256",
              "name": "productsOwned",
              "type": "uint256"
            }
          ],
          "internalType": "struct DigitalGoods.Seller",
          "name": "",
          "type": "tuple"
        }
      ],
      "stateMutability": "view",
      "type": "function"
    },
    {
      "inputs": [],
      "name": "paymentToken",
      "outputs": [
        {
          "internalType": "contract IERC20",
          "name": "",
          "type": "address"
        }
      ],
      "stateMutability": "view",
      "type": "function"
    },
    {
      "inputs": [
        {
          "internalType": "string",
          "name": "_productID",
          "type": "string"
        }
      ],
      "name": "removeProductByID",
      "outputs": [],
      "stateMutability": "nonpayable",
      "type": "function"
    },
    {
      "inputs": [
        {
          "internalType": "string",
          "name": "_sellerID",
          "type": "string"
        }
      ],
      "name": "removeSellerByID",
      "outputs": [],
      "stateMutability": "nonpayable",
      "type": "function"
    },
    {
      "inputs": [
        {
          "internalType": "string",
          "name": "_productID",
          "type": "string"
        },
        {
          "internalType": "address",
          "name": "_ownerAddress",
          "type": "address"
        }
      ],
      "name": "sellProductByID",
      "outputs": [],
      "stateMutability": "nonpayable",
      "type": "function"
    },
    {
      "inputs": [
        {
          "internalType": "string",
          "name": "_productID",
          "type": "string"
        },
        {
          "internalType": "uint256",
          "name": "_newPrice",
          "type": "uint256"
        }
      ],
      "name": "updatePrice",
      "outputs": [],
      "stateMutability": "nonpayable",
      "type": "function"
    },
    {
      "inputs": [],
      "name": "updateSellerProductsOwned",
      "outputs": [],
      "stateMutability": "nonpayable",
      "type": "function"
    },
    {
      "inputs": [
        {
          "internalType": "address payable",
          "name": "_address",
          "type": "address"
        }
      ],
      "name": "viewWalletTokenBalance",
      "outputs": [
        {
          "internalType": "uint256",
          "name": "",
          "type": "uint256"
        }
      ],
      "stateMutability": "view",
      "type": "function"
    }
  ],
  "bytecode": "0x60806040523480156200001157600080fd5b50600080546001600160a01b03199081163317909155600180549091167345dcb8fcc18cf26857c140985b8f61106b498f081781556040805180820182526002815261233160f01b60208083019190915282518084018452600381526244233160e81b818301528351808501909452938352601960fa1b90830152620000b2929091606490735b38da6a701c568545dcfcb03fcb875f56beddc49062000337565b6200012a60405180604001604052806002815260200161119960f11b8152506040518060400160405280600381526020016222119960e91b81525060c873ab8483f64d9c6d1ecf9b849ae677dd3315835cb2604051806040016040528060018152602001601960fa1b8152506200033760201b60201c565b620001a260405180604001604052806002815260200161233360f01b8152506040518060400160405280600381526020016244233360e81b8152506064735b38da6a701c568545dcfcb03fcb875f56beddc4604051806040016040528060018152602001601960fa1b8152506200033760201b60201c565b6200021a6040518060400160405280600281526020016108cd60f21b8152506040518060400160405280600381526020016244233360e81b81525060c8735b38da6a701c568545dcfcb03fcb875f56beddc4604051806040016040528060018152602001601960fa1b8152506200033760201b60201c565b620002776040518060400160405280600381526020016223533160e81b8152506040518060400160405280600381526020016253233160e81b815250735b38da6a701c568545dcfcb03fcb875f56beddc4620004f160201b60201c565b620002d46040518060400160405280600381526020016211a99960e91b8152506040518060400160405280600381526020016229919960e91b81525073ab8483f64d9c6d1ecf9b849ae677dd3315835cb2620004f160201b60201c565b620003316040518060400160405280600381526020016223533360e81b8152506040518060400160405280600381526020016253233360e81b815250734b20993bc481177ec7e8f571cecae8a9e22c02db620004f160201b60201c565b62001260565b6000546001600160a01b031633146200039a5760405162461bcd60e51b815260206004820152602b6024820152600080516020620052e983398151915260448201526a3a3434b99030b1ba34b7b760a91b60648201526084015b60405180910390fd5b60006040518060e00160405280878152602001868152602001858152602001620003c9620006cd60201b60201c565b815260208082018590526001600160a01b03861660408084019190915260006060909301839052338352600282528220805460018101825590835291208251929350839260069092020190819062000422908262000f30565b506020820151600182019062000439908262000f30565b5060408201516002820155606082015160038201906200045a908262000f30565b506080820151600482019062000471908262000f30565b5060a08201516005909101805460c0909301511515600160a01b026001600160a81b03199093166001600160a01b039092169190911791909117905560405133907fcae92bda619dd2b4c51bd86d7251b0af0e2e5b7e1e4061e30366c4cf63f5747590620004e190849062001050565b60405180910390a2505050505050565b6000546001600160a01b03163314620005505760405162461bcd60e51b815260206004820152602b6024820152600080516020620052e983398151915260448201526a3a3434b99030b1ba34b7b760a91b606482015260840162000391565b6200055b8162000712565b15620005aa5760405162461bcd60e51b815260206004820152601560248201527f53656c6c657220616c7265616479206578697374730000000000000000000000604482015260640162000391565b60006040518060a00160405280858152602001836001600160a01b03168152602001848152602001620005e2620009de60201b60201c565b815260006020918201819052338152600382526040812080546001810182559082529190208251929350839260059092020190819062000623908262000f30565b5060208201516001820180546001600160a01b0319166001600160a01b039092169190911790556040820151600282019062000660908262000f30565b506060820151600382019062000677908262000f30565b50608082015181600401555050816001600160a01b03167f3951c09cfe09f72165dab3159e6592879df7c9d78d6d1500daeab12809e191cb82604051620006bf919062001109565b60405180910390a250505050565b6060620006dd6003600162000a0f565b620006eb6007600162000bf7565b604051602001620006fe92919062001190565b604051602081830303815290604052905090565b6001600160a01b038116600090815260036020908152604080832080548251818502810185019093528083528493849084015b828210156200096857838290600052602060002090600502016040518060a00160405290816000820180546200077b9062000ea1565b80601f0160208091040260200160405190810160405280929190818152602001828054620007a99062000ea1565b8015620007fa5780601f10620007ce57610100808354040283529160200191620007fa565b820191906000526020600020905b815481529060010190602001808311620007dc57829003601f168201915b505050918352505060018201546001600160a01b031660208201526002820180546040909201916200082c9062000ea1565b80601f01602080910402602001604051908101604052809291908181526020018280546200085a9062000ea1565b8015620008ab5780601f106200087f57610100808354040283529160200191620008ab565b820191906000526020600020905b8154815290600101906020018083116200088d57829003601f168201915b50505050508152602001600382018054620008c69062000ea1565b80601f0160208091040260200160405190810160405280929190818152602001828054620008f49062000ea1565b8015620009455780601f10620009195761010080835404028352916020019162000945565b820191906000526020600020905b8154815290600101906020018083116200092757829003601f168201915b505050505081526020016004820154815250508152602001906001019062000745565b50505050905060005b8151811015620009d457836001600160a01b03168282815181106200099a576200099a620011df565b6020026020010151602001516001600160a01b031603620009bf575060019392505050565b80620009cb81620011f5565b91505062000971565b5060009392505050565b6060620009ee6005600262000a0f565b620009fc6005600262000bf7565b604051602001620006fe9291906200121d565b60606000836001600160401b0381111562000a2e5762000a2e62000e8b565b6040519080825280601f01601f19166020018201604052801562000a59576020820181803683370190505b50905060606004841162000bdc578360000362000a98575060408051808201909152600a8152690e4d0c4c8d4ccd8e0dcd60b21b602082015262000b57565b8360010362000ac9575060408051808201909152600a8152693432363135373938303360b01b602082015262000b57565b8360020362000afa575060408051808201909152600a8152691a9b99989c1b1a1b9c9960b11b602082015262000b57565b8360030362000b2b575060408051808201909152600a8152691a1b9999189b1c9a9c1960b11b602082015262000b57565b8360040362000b57575060408051808201909152600a8152693934323138333735303160b01b60208201525b60005b8581101562000bd0578162000b71600a8362000e21565b8151811062000b845762000b84620011df565b602001015160f81c60f81b83828151811062000ba45762000ba4620011df565b60200101906001600160f81b031916908160001a9053508062000bc781620011f5565b91505062000b5a565b50819250505062000bf1565b60405180602001604052806000815250925050505b92915050565b60606001831015801562000c0c5750600e8311155b62000c5a5760405162461bcd60e51b815260206004820152601f60248201527f4c656e677468206d757374206265206265747765656e203120616e6420313400604482015260640162000391565b6000836001600160401b0381111562000c775762000c7762000e8b565b6040519080825280601f01601f19166020018201604052801562000ca2576020820181803683370190505b50905060608360000362000cd2576040518060600160405280603e815260200162005347603e9139905062000d98565b8360010362000cfd576040518060600160405280603e815260200162005309603e9139905062000d98565b8360020362000d28576040518060600160405280603e8152602001620052ab603e9139905062000d98565b8360030362000d53576040518060600160405280603e81526020016200526d603e9139905062000d98565b8360040362000d7e576040518060600160405280602481526020016200538560249139905062000d98565b604051806020016040528060008152509250505062000bf1565b60005b8581101562000e17578162000db883518362000e2160201b60201c565b8151811062000dcb5762000dcb620011df565b602001015160f81c60f81b83828151811062000deb5762000deb620011df565b60200101906001600160f81b031916908160001a9053508062000e0e81620011f5565b91505062000d9b565b5090949350505050565b6000824244338560405160200162000e5f9493929190938452602084019290925260601b6001600160601b0319166040830152605482015260740190565b6040516020818303038152906040528051906020012060001c62000e8491906200123d565b9392505050565b634e487b7160e01b600052604160045260246000fd5b600181811c9082168062000eb657607f821691505b60208210810362000ed757634e487b7160e01b600052602260045260246000fd5b50919050565b601f82111562000f2b57600081815260208120601f850160051c8101602086101562000f065750805b601f850160051c820191505b8181101562000f275782815560010162000f12565b5050505b505050565b81516001600160401b0381111562000f4c5762000f4c62000e8b565b62000f648162000f5d845462000ea1565b8462000edd565b602080601f83116001811462000f9c576000841562000f835750858301515b600019600386901b1c1916600185901b17855562000f27565b600085815260208120601f198616915b8281101562000fcd5788860151825594840194600190910190840162000fac565b508582101562000fec5787850151600019600388901b60f8161c191681555b5050505050600190811b01905550565b60005b838110156200101957818101518382015260200162000fff565b50506000910152565b600081518084526200103c81602086016020860162000ffc565b601f01601f19169290920160200192915050565b602081526000825160e060208401526200106f61010084018262001022565b90506020840151601f19808584030160408601526200108f838362001022565b9250604086015160608601526060860151915080858403016080860152620010b8838362001022565b925060808601519150808584030160a086015250620010d8828262001022565b91505060018060a01b0360a08501511660c084015260c08401516200110160e085018215159052565b509392505050565b602081526000825160a060208401526200112760c084018262001022565b905060018060a01b0360208501511660408401526040840151601f198085840301606086015262001159838362001022565b925060608601519150808584030160808601525062001179828262001022565b915050608084015160a08401528091505092915050565b6213519560ea1b815260008351620011b081600385016020880162000ffc565b602d60f81b6003918401918201528351620011d381600484016020880162000ffc565b01600401949350505050565b634e487b7160e01b600052603260045260246000fd5b6000600182016200121657634e487b7160e01b600052601160045260246000fd5b5060010190565b6253535360e81b815260008351620011b081600385016020880162000ffc565b6000826200125b57634e487b7160e01b600052601260045260246000fd5b500690565b613ffd80620012706000396000f3fe608060405234801561001057600080fd5b50600436106101165760003560e01c80637de4c8db116100a2578063ab17358211610071578063ab17358214610276578063b1080c6a14610297578063cd052a8f146102aa578063f39e47c6146102bd578063f7afc2cf146102d057600080fd5b80637de4c8db146102105780638955a83714610223578063973a89c014610243578063975317671461026357600080fd5b80633544b6b1116100e95780633544b6b1146101a45780634044d80f146101b75780634a432a46146101ca57806362d85fa5146101dd5780636bc04a38146101fd57600080fd5b80630b5947c61461011b578063216a5c7d146101445780632e1528ae146101595780633013ce2914610179575b600080fd5b61012e6101293660046134d0565b6102d8565b60405161013b919061355c565b60405180910390f35b610157610152366004613612565b610675565b005b61016c6101673660046136b8565b6107ed565b60405161013b919061374d565b60015461018c906001600160a01b031681565b6040516001600160a01b03909116815260200161013b565b61016c6101b23660046134d0565b610ad3565b6101576101c5366004613760565b610e82565b6101576101d83660046137b1565b6112cc565b6101f06101eb3660046136b8565b61140a565b60405161013b919061388c565b61015761020b3660046134d0565b611792565b61015761021e3660046138ee565b6119ed565b6102366102313660046134d0565b611b78565b60405161013b9190613965565b6102566102513660046136b8565b611f07565b60405161013b9190613978565b6101576102713660046139cd565b61229f565b610289610284366004613a54565b61234c565b60405190815260200161013b565b6101f06102a53660046136b8565b6123cc565b6102896102b83660046136b8565b6127f9565b6101576102cb3660046134d0565b612868565b610157612b09565b60606000600460006102f26000546001600160a01b031690565b6001600160a01b03166001600160a01b0316815260200190815260200160002090506000805b825481101561038657848051906020012083828154811061033b5761033b613a82565b90600052602060002090600302016002016040516103599190613ad2565b604051809103902003610374578161037081613b5e565b9250505b8061037e81613b5e565b915050610318565b506000816001600160401b038111156103a1576103a161342e565b6040519080825280602002602001820160405280156103f657816020015b6103e360405180606001604052806060815260200160608152602001606081525090565b8152602001906001900390816103bf5790505b5090506000805b845481101561066a57868051906020012085828154811061042057610420613a82565b906000526020600020906003020160020160405161043e9190613ad2565b6040518091039020036106585784818154811061045d5761045d613a82565b906000526020600020906003020160405180606001604052908160008201805461048690613a98565b80601f01602080910402602001604051908101604052809291908181526020018280546104b290613a98565b80156104ff5780601f106104d4576101008083540402835291602001916104ff565b820191906000526020600020905b8154815290600101906020018083116104e257829003601f168201915b5050505050815260200160018201805461051890613a98565b80601f016020809104026020016040519081016040528092919081815260200182805461054490613a98565b80156105915780601f1061056657610100808354040283529160200191610591565b820191906000526020600020905b81548152906001019060200180831161057457829003601f168201915b505050505081526020016002820180546105aa90613a98565b80601f01602080910402602001604051908101604052809291908181526020018280546105d690613a98565b80156106235780601f106105f857610100808354040283529160200191610623565b820191906000526020600020905b81548152906001019060200180831161060657829003601f168201915b50505050508152505083838151811061063e5761063e613a82565b6020026020010181905250818061065490613b5e565b9250505b8061066281613b5e565b9150506103fd565b509095945050505050565b6000546001600160a01b031633146106a85760405162461bcd60e51b815260040161069f90613b77565b60405180910390fd5b60006040518060e001604052808781526020018681526020018581526020016106cf612c14565b815260208082018590526001600160a01b0386166040808401919091526000606090930183905233835260028252822080546001810182559083529120825192935083926006909202019081906107269082613c10565b506020820151600182019061073b9082613c10565b50604082015160028201556060820151600382019061075a9082613c10565b506080820151600482019061076f9082613c10565b5060a08201516005909101805460c0909301511515600160a01b026001600160a81b03199093166001600160a01b039092169190911791909117905560405133907fcae92bda619dd2b4c51bd86d7251b0af0e2e5b7e1e4061e30366c4cf63f57475906107dd908490613965565b60405180910390a2505050505050565b6107f5613358565b60006003600061080d6000546001600160a01b031690565b6001600160a01b03166001600160a01b03168152602001908152602001600020905060005b8154811015610a9657836001600160a01b031682828154811061085757610857613a82565b60009182526020909120600160059092020101546001600160a01b031603610a845781818154811061088b5761088b613a82565b90600052602060002090600502016040518060a00160405290816000820180546108b490613a98565b80601f01602080910402602001604051908101604052809291908181526020018280546108e090613a98565b801561092d5780601f106109025761010080835404028352916020019161092d565b820191906000526020600020905b81548152906001019060200180831161091057829003601f168201915b505050918352505060018201546001600160a01b0316602082015260028201805460409092019161095d90613a98565b80601f016020809104026020016040519081016040528092919081815260200182805461098990613a98565b80156109d65780601f106109ab576101008083540402835291602001916109d6565b820191906000526020600020905b8154815290600101906020018083116109b957829003601f168201915b505050505081526020016003820180546109ef90613a98565b80601f0160208091040260200160405190810160405280929190818152602001828054610a1b90613a98565b8015610a685780601f10610a3d57610100808354040283529160200191610a68565b820191906000526020600020905b815481529060010190602001808311610a4b57829003601f168201915b5050505050815260200160048201548152505092505050919050565b80610a8e81613b5e565b915050610832565b5060405162461bcd60e51b815260206004820152601160248201527029b2b63632b9102737ba102337bab7321760791b604482015260640161069f565b610adb613358565b600060036000610af36000546001600160a01b031690565b6001600160a01b03166001600160a01b03168152602001908152602001600020905060005b8154811015610a96578380519060200120828281548110610b3b57610b3b613a82565b9060005260206000209060050201600301604051610b599190613ad2565b604051809103902003610e70576000805b60026000610b806000546001600160a01b031690565b6001600160a01b03168152602081019190915260400160002054811015610c5857838381548110610bb357610bb3613a82565b600091825260208220600160059092020101546001600160a01b031690600290610be56000546001600160a01b031690565b6001600160a01b03166001600160a01b031681526020019081526020016000208281548110610c1657610c16613a82565b60009182526020909120600560069092020101546001600160a01b031603610c465781610c4281613b5e565b9250505b80610c5081613b5e565b915050610b6a565b506000838381548110610c6d57610c6d613a82565b90600052602060002090600502016040518060a0016040529081600082018054610c9690613a98565b80601f0160208091040260200160405190810160405280929190818152602001828054610cc290613a98565b8015610d0f5780601f10610ce457610100808354040283529160200191610d0f565b820191906000526020600020905b815481529060010190602001808311610cf257829003601f168201915b505050918352505060018201546001600160a01b03166020820152600282018054604090920191610d3f90613a98565b80601f0160208091040260200160405190810160405280929190818152602001828054610d6b90613a98565b8015610db85780601f10610d8d57610100808354040283529160200191610db8565b820191906000526020600020905b815481529060010190602001808311610d9b57829003601f168201915b50505050508152602001600382018054610dd190613a98565b80601f0160208091040260200160405190810160405280929190818152602001828054610dfd90613a98565b8015610e4a5780601f10610e1f57610100808354040283529160200191610e4a565b820191906000526020600020905b815481529060010190602001808311610e2d57829003601f168201915b505050918352505060049190910154602090910152608081019290925250949350505050565b80610e7a81613b5e565b915050610b18565b600060026000610e9a6000546001600160a01b031690565b6001600160a01b03166001600160a01b0316815260200190815260200160002090506000805b8254811015611278578480519060200120838281548110610ee357610ee3613a82565b9060005260206000209060060201600301604051610f019190613ad2565b60405180910390200361126657828181548110610f2057610f20613a82565b906000526020600020906006020160050160149054906101000a900460ff1615610f835760405162461bcd60e51b8152602060048201526014602482015273141c9bd91d58dd08185b1c9958591e481cdbdb1960621b604482015260640161069f565b836001600160a01b0316838281548110610f9f57610f9f613a82565b60009182526020909120600560069092020101546001600160a01b0316036110135760405162461bcd60e51b815260206004820152602160248201527f4f776e657220616464726573732063616e6e6f74206265207468652073616d656044820152601760f91b606482015260840161069f565b82818154811061102557611025613a82565b60009182526020909120600690910201600201546001546040516370a0823160e01b81526001600160a01b038781166004830152909116906370a0823190602401602060405180830381865afa158015611083573d6000803e3d6000fd5b505050506040513d601f19601f820116820180604052508101906110a79190613ccf565b10156110ec5760405162461bcd60e51b8152602060048201526014602482015273496e73756666696369656e742062616c616e636560601b604482015260640161069f565b600083828154811061110057611100613a82565b9060005260206000209060060201600201549050600160009054906101000a90046001600160a01b03166001600160a01b03166323b872dd8686858154811061114b5761114b613a82565b600091825260209091206006909102016005015460405160e084901b6001600160e01b03191681526001600160a01b03928316600482015291166024820152604481018490526064016020604051808303816000875af11580156111b3573d6000803e3d6000fd5b505050506040513d601f19601f820116820180604052508101906111d79190613ce8565b5060018483815481106111ec576111ec613a82565b906000526020600020906006020160050160146101000a81548160ff0219169083151502179055508484838154811061122757611227613a82565b906000526020600020906006020160050160006101000a8154816001600160a01b0302191690836001600160a01b031602179055506001925050611278565b8061127081613b5e565b915050610ec0565b50806112c65760405162461bcd60e51b815260206004820152601960248201527f50726f6475637420494420646f6573206e6f7420657869737400000000000000604482015260640161069f565b50505050565b6000546001600160a01b031633146112f65760405162461bcd60e51b815260040161069f90613b77565b60006002600061130e6000546001600160a01b031690565b6001600160a01b03166001600160a01b0316815260200190815260200160002090506000805b82548110156113c557848051906020012083828154811061135757611357613a82565b90600052602060002090600602016003016040516113759190613ad2565b6040518091039020036113b3578383828154811061139557611395613a82565b906000526020600020906006020160020181905550600191506113c5565b806113bd81613b5e565b915050611334565b50806112c65760405162461bcd60e51b8152602060048201526014602482015273141c9bd91d58dd081251081b9bdd08195e1a5cdd60621b604482015260640161069f565b6001600160a01b038116600090815260026020526040812054606091906001600160401b0381111561143e5761143e61342e565b60405190808252806020026020018201604052801561147757816020015b611464613390565b81526020019060019003908161145c5790505b50905060005b6001600160a01b03841660009081526002602052604090205481101561178b576001600160a01b03841660009081526002602052604090208054829081106114c7576114c7613a82565b90600052602060002090600602016040518060e00160405290816000820180546114f090613a98565b80601f016020809104026020016040519081016040528092919081815260200182805461151c90613a98565b80156115695780601f1061153e57610100808354040283529160200191611569565b820191906000526020600020905b81548152906001019060200180831161154c57829003601f168201915b5050505050815260200160018201805461158290613a98565b80601f01602080910402602001604051908101604052809291908181526020018280546115ae90613a98565b80156115fb5780601f106115d0576101008083540402835291602001916115fb565b820191906000526020600020905b8154815290600101906020018083116115de57829003601f168201915b505050505081526020016002820154815260200160038201805461161e90613a98565b80601f016020809104026020016040519081016040528092919081815260200182805461164a90613a98565b80156116975780601f1061166c57610100808354040283529160200191611697565b820191906000526020600020905b81548152906001019060200180831161167a57829003601f168201915b505050505081526020016004820180546116b090613a98565b80601f01602080910402602001604051908101604052809291908181526020018280546116dc90613a98565b80156117295780601f106116fe57610100808354040283529160200191611729565b820191906000526020600020905b81548152906001019060200180831161170c57829003601f168201915b5050509183525050600591909101546001600160a01b0381166020830152600160a01b900460ff161515604090910152825183908390811061176d5761176d613a82565b6020026020010181905250808061178390613b5e565b91505061147d565b5092915050565b6000546001600160a01b031633146117bc5760405162461bcd60e51b815260040161069f90613b77565b6000600360006117d46000546001600160a01b031690565b6001600160a01b03166001600160a01b0316815260200190815260200160002090506000805b82548110156119a457838051906020012083828154811061181d5761181d613a82565b906000526020600020906005020160030160405161183b9190613ad2565b60405180910390200361199257805b835461185890600190613d0a565b81101561191e578361186b826001613d1d565b8154811061187b5761187b613a82565b906000526020600020906005020184828154811061189b5761189b613a82565b60009182526020909120600590910201806118b68382613d30565b5060018281015490820180546001600160a01b0319166001600160a01b039092169190911790556002808201906118ef90840182613d30565b5060038181019061190290840182613d30565b506004918201549101558061191681613b5e565b91505061184a565b508280548061192f5761192f613e0a565b6000828152602081206000199092019160058302019061194f82826133d8565b6001820180546001600160a01b031916905561196f6002830160006133d8565b61197d6003830160006133d8565b600482016000905550509055600191506119a4565b8061199c81613b5e565b9150506117fa565b50806119e85760405162461bcd60e51b815260206004820152601360248201527214d95b1b195c881251081b9bdd08195e1a5cdd606a1b604482015260640161069f565b505050565b6000546001600160a01b03163314611a175760405162461bcd60e51b815260040161069f90613b77565b611a2081612c53565b15611a655760405162461bcd60e51b815260206004820152601560248201527453656c6c657220616c72656164792065786973747360581b604482015260640161069f565b60006040518060a00160405280858152602001836001600160a01b03168152602001848152602001611a95612efd565b8152600060209182018190523381526003825260408120805460018101825590825291902082519293508392600590920201908190611ad49082613c10565b5060208201516001820180546001600160a01b0319166001600160a01b0390921691909117905560408201516002820190611b0f9082613c10565b5060608201516003820190611b249082613c10565b50608082015181600401555050816001600160a01b03167f3951c09cfe09f72165dab3159e6592879df7c9d78d6d1500daeab12809e191cb82604051611b6a919061374d565b60405180910390a250505050565b611b80613390565b600060026000611b986000546001600160a01b031690565b6001600160a01b03166001600160a01b03168152602001908152602001600020905060005b8154811015611ec9578380519060200120828281548110611be057611be0613a82565b9060005260206000209060060201600301604051611bfe9190613ad2565b604051809103902003611eb757818181548110611c1d57611c1d613a82565b90600052602060002090600602016040518060e0016040529081600082018054611c4690613a98565b80601f0160208091040260200160405190810160405280929190818152602001828054611c7290613a98565b8015611cbf5780601f10611c9457610100808354040283529160200191611cbf565b820191906000526020600020905b815481529060010190602001808311611ca257829003601f168201915b50505050508152602001600182018054611cd890613a98565b80601f0160208091040260200160405190810160405280929190818152602001828054611d0490613a98565b8015611d515780601f10611d2657610100808354040283529160200191611d51565b820191906000526020600020905b815481529060010190602001808311611d3457829003601f168201915b5050505050815260200160028201548152602001600382018054611d7490613a98565b80601f0160208091040260200160405190810160405280929190818152602001828054611da090613a98565b8015611ded5780601f10611dc257610100808354040283529160200191611ded565b820191906000526020600020905b815481529060010190602001808311611dd057829003601f168201915b50505050508152602001600482018054611e0690613a98565b80601f0160208091040260200160405190810160405280929190818152602001828054611e3290613a98565b8015611e7f5780601f10611e5457610100808354040283529160200191611e7f565b820191906000526020600020905b815481529060010190602001808311611e6257829003601f168201915b5050509183525050600591909101546001600160a01b0381166020830152600160a01b900460ff161515604090910152949350505050565b80611ec181613b5e565b915050611bbd565b5060405162461bcd60e51b8152602060048201526012602482015271283937b23ab1ba103737ba103337bab7321760711b604482015260640161069f565b6001600160a01b03811660009081526003602052604081208054606092906001600160401b03811115611f3c57611f3c61342e565b604051908082528060200260200182016040528015611f7557816020015b611f62613358565b815260200190600190039081611f5a5790505b50905060005b8254811015612297576000805b6001600160a01b03871660009081526002602052604090205481101561204257848381548110611fba57611fba613a82565b60009182526020808320600160059093020191909101546001600160a01b038a811684526002909252604090922080549190921691908390811061200057612000613a82565b60009182526020909120600560069092020101546001600160a01b031603612030578161202c81613b5e565b9250505b8061203a81613b5e565b915050611f88565b5083828154811061205557612055613a82565b90600052602060002090600502016040518060a001604052908160008201805461207e90613a98565b80601f01602080910402602001604051908101604052809291908181526020018280546120aa90613a98565b80156120f75780601f106120cc576101008083540402835291602001916120f7565b820191906000526020600020905b8154815290600101906020018083116120da57829003601f168201915b505050918352505060018201546001600160a01b0316602082015260028201805460409092019161212790613a98565b80601f016020809104026020016040519081016040528092919081815260200182805461215390613a98565b80156121a05780601f10612175576101008083540402835291602001916121a0565b820191906000526020600020905b81548152906001019060200180831161218357829003601f168201915b505050505081526020016003820180546121b990613a98565b80601f01602080910402602001604051908101604052809291908181526020018280546121e590613a98565b80156122325780601f1061220757610100808354040283529160200191612232565b820191906000526020600020905b81548152906001019060200180831161221557829003601f168201915b5050505050815260200160048201548152505083838151811061225757612257613a82565b60200260200101819052508083838151811061227557612275613a82565b602090810291909101015160800152508061228f81613b5e565b915050611f7b565b509392505050565b6000546001600160a01b031633146122c95760405162461bcd60e51b815260040161069f90613b77565b604080516060810182528481526020808201859052818301849052336000908152600482529283208054600181018255908452922081519192839260039091029091019081906123199082613c10565b506020820151600182019061232e9082613c10565b50604082015160028201906123439082613c10565b50505050505050565b600154604051636eb1769f60e11b81526001600160a01b0384811660048301528381166024830152600092169063dd62ed3e90604401602060405180830381865afa15801561239f573d6000803e3d6000fd5b505050506040513d601f19601f820116820180604052508101906123c39190613ccf565b90505b92915050565b60606000600260006123e66000546001600160a01b031690565b6001600160a01b03166001600160a01b0316815260200190815260200160002090506000805b825481101561247357846001600160a01b031683828154811061243157612431613a82565b60009182526020909120600560069092020101546001600160a01b031603612461578161245d81613b5e565b9250505b8061246b81613b5e565b91505061240c565b506000816001600160401b0381111561248e5761248e61342e565b6040519080825280602002602001820160405280156124c757816020015b6124b4613390565b8152602001906001900390816124ac5790505b5090506000805b845481101561066a57866001600160a01b03168582815481106124f3576124f3613a82565b60009182526020909120600560069092020101546001600160a01b0316036127e75784818154811061252757612527613a82565b90600052602060002090600602016040518060e001604052908160008201805461255090613a98565b80601f016020809104026020016040519081016040528092919081815260200182805461257c90613a98565b80156125c95780601f1061259e576101008083540402835291602001916125c9565b820191906000526020600020905b8154815290600101906020018083116125ac57829003601f168201915b505050505081526020016001820180546125e290613a98565b80601f016020809104026020016040519081016040528092919081815260200182805461260e90613a98565b801561265b5780601f106126305761010080835404028352916020019161265b565b820191906000526020600020905b81548152906001019060200180831161263e57829003601f168201915b505050505081526020016002820154815260200160038201805461267e90613a98565b80601f01602080910402602001604051908101604052809291908181526020018280546126aa90613a98565b80156126f75780601f106126cc576101008083540402835291602001916126f7565b820191906000526020600020905b8154815290600101906020018083116126da57829003601f168201915b5050505050815260200160048201805461271090613a98565b80601f016020809104026020016040519081016040528092919081815260200182805461273c90613a98565b80156127895780601f1061275e57610100808354040283529160200191612789565b820191906000526020600020905b81548152906001019060200180831161276c57829003601f168201915b5050509183525050600591909101546001600160a01b0381166020830152600160a01b900460ff16151560409091015283518490849081106127cd576127cd613a82565b602002602001018190525081806127e390613b5e565b9250505b806127f181613b5e565b9150506124ce565b6001546040516370a0823160e01b81526001600160a01b03838116600483015260009216906370a0823190602401602060405180830381865afa158015612844573d6000803e3d6000fd5b505050506040513d601f19601f820116820180604052508101906123c69190613ccf565b6000546001600160a01b031633146128925760405162461bcd60e51b815260040161069f90613b77565b6000600260006128aa6000546001600160a01b031690565b6001600160a01b03166001600160a01b0316815260200190815260200160002090506000805b8254811015612ac45783805190602001208382815481106128f3576128f3613a82565b90600052602060002090600602016003016040516129119190613ad2565b604051809103902003612ab257805b835461292e90600190613d0a565b811015612a305783612941826001613d1d565b8154811061295157612951613a82565b906000526020600020906006020184828154811061297157612971613a82565b600091825260209091206006909102018061298c8382613d30565b5060018181019061299f90840182613d30565b5060028201548160020155600382018160030190816129be9190613d30565b506004818101906129d190840182613d30565b50600591820180549190920180546001600160a01b039092166001600160a01b031983168117825592546001600160a81b0319909216909217600160a01b9182900460ff16151590910217905580612a2881613b5e565b915050612920565b5082805480612a4157612a41613e0a565b60008281526020812060001990920191600683020190612a6182826133d8565b612a6f6001830160006133d8565b6002820160009055600382016000612a8791906133d8565b612a956004830160006133d8565b5060050180546001600160a81b0319169055905560019150612ac4565b80612abc81613b5e565b9150506128d0565b50806119e85760405162461bcd60e51b8152602060048201526014602482015273141c9bd91d58dd081251081b9bdd08195e1a5cdd60621b604482015260640161069f565b33600090815260036020526040812090805b82548110156119e85760005b33600090815260026020526040902054811015612bd457838281548110612b5057612b50613a82565b60009182526020808320600160059093020191909101543383526002909152604090912080546001600160a01b039092169183908110612b9257612b92613a82565b60009182526020909120600560069092020101546001600160a01b031603612bc25782612bbe81613b5e565b9350505b80612bcc81613b5e565b915050612b27565b5081838281548110612be857612be8613a82565b906000526020600020906005020160040181905550600091508080612c0c90613b5e565b915050612b1b565b6060612c2260036001612f28565b612c2e600760016130f2565b604051602001612c3f929190613e20565b604051602081830303815290604052905090565b6001600160a01b038116600090815260036020908152604080832080548251818502810185019093528083528493849084015b82821015612e8f57838290600052602060002090600502016040518060a0016040529081600082018054612cb990613a98565b80601f0160208091040260200160405190810160405280929190818152602001828054612ce590613a98565b8015612d325780601f10612d0757610100808354040283529160200191612d32565b820191906000526020600020905b815481529060010190602001808311612d1557829003601f168201915b505050918352505060018201546001600160a01b03166020820152600282018054604090920191612d6290613a98565b80601f0160208091040260200160405190810160405280929190818152602001828054612d8e90613a98565b8015612ddb5780601f10612db057610100808354040283529160200191612ddb565b820191906000526020600020905b815481529060010190602001808311612dbe57829003601f168201915b50505050508152602001600382018054612df490613a98565b80601f0160208091040260200160405190810160405280929190818152602001828054612e2090613a98565b8015612e6d5780601f10612e4257610100808354040283529160200191612e6d565b820191906000526020600020905b815481529060010190602001808311612e5057829003601f168201915b5050505050815260200160048201548152505081526020019060010190612c86565b50505050905060005b8151811015612ef357836001600160a01b0316828281518110612ebd57612ebd613a82565b6020026020010151602001516001600160a01b031603612ee1575060019392505050565b80612eeb81613b5e565b915050612e98565b5060009392505050565b6060612f0b60056002612f28565b612f17600560026130f2565b604051602001612c3f929190613e6b565b60606000836001600160401b03811115612f4457612f4461342e565b6040519080825280601f01601f191660200182016040528015612f6e576020820181803683370190505b5090506060600484116130da5783600003612faa575060408051808201909152600a8152690e4d0c4c8d4ccd8e0dcd60b21b6020820152613062565b83600103612fd9575060408051808201909152600a8152693432363135373938303360b01b6020820152613062565b83600203613008575060408051808201909152600a8152691a9b99989c1b1a1b9c9960b11b6020820152613062565b83600303613037575060408051808201909152600a8152691a1b9999189b1c9a9c1960b11b6020820152613062565b83600403613062575060408051808201909152600a8152693934323138333735303160b01b60208201525b60005b858110156130cf5781613079600a836132f3565b8151811061308957613089613a82565b602001015160f81c60f81b8382815181106130a6576130a6613a82565b60200101906001600160f81b031916908160001a905350806130c781613b5e565b915050613065565b5081925050506123c6565b50506040805160208101909152600081529392505050565b6060600183101580156131065750600e8311155b6131525760405162461bcd60e51b815260206004820152601f60248201527f4c656e677468206d757374206265206265747765656e203120616e6420313400604482015260640161069f565b6000836001600160401b0381111561316c5761316c61342e565b6040519080825280601f01601f191660200182016040528015613196576020820181803683370190505b5090506060836000036131c3576040518060600160405280603e8152602001613f66603e9139905061327c565b836001036131eb576040518060600160405280603e8152602001613f28603e9139905061327c565b83600203613213576040518060600160405280603e8152602001613eea603e9139905061327c565b8360030361323b576040518060600160405280603e8152602001613eac603e9139905061327c565b8360040361326357604051806060016040528060248152602001613fa460249139905061327c565b60405180602001604052806000815250925050506123c6565b60005b858110156132e957816132938351836132f3565b815181106132a3576132a3613a82565b602001015160f81c60f81b8382815181106132c0576132c0613a82565b60200101906001600160f81b031916908160001a905350806132e181613b5e565b91505061327f565b5090949350505050565b600082424433856040516020016133359493929190938452602084019290925260601b6bffffffffffffffffffffffff19166040830152605482015260740190565b6040516020818303038152906040528051906020012060001c6123c39190613e89565b6040518060a001604052806060815260200160006001600160a01b031681526020016060815260200160608152602001600081525090565b6040518060e00160405280606081526020016060815260200160008152602001606081526020016060815260200160006001600160a01b031681526020016000151581525090565b5080546133e490613a98565b6000825580601f106133f4575050565b601f0160209004906000526020600020908101906134129190613415565b50565b5b8082111561342a5760008155600101613416565b5090565b634e487b7160e01b600052604160045260246000fd5b600082601f83011261345557600080fd5b81356001600160401b038082111561346f5761346f61342e565b604051601f8301601f19908116603f011681019082821181831017156134975761349761342e565b816040528381528660208588010111156134b057600080fd5b836020870160208301376000602085830101528094505050505092915050565b6000602082840312156134e257600080fd5b81356001600160401b038111156134f857600080fd5b61350484828501613444565b949350505050565b60005b8381101561352757818101518382015260200161350f565b50506000910152565b6000815180845261354881602086016020860161350c565b601f01601f19169290920160200192915050565b60006020808301818452808551808352604092508286019150828160051b87010184880160005b838110156135ef57603f198984030185528151606081518186526135a982870182613530565b915050888201518582038a8701526135c18282613530565b915050878201519150848103888601526135db8183613530565b968901969450505090860190600101613583565b509098975050505050505050565b6001600160a01b038116811461341257600080fd5b600080600080600060a0868803121561362a57600080fd5b85356001600160401b038082111561364157600080fd5b61364d89838a01613444565b9650602088013591508082111561366357600080fd5b61366f89838a01613444565b95506040880135945060608801359150613688826135fd565b9092506080870135908082111561369e57600080fd5b506136ab88828901613444565b9150509295509295909350565b6000602082840312156136ca57600080fd5b81356136d5816135fd565b9392505050565b6000815160a084526136f160a0850182613530565b905060018060a01b0360208401511660208501526040830151848203604086015261371c8282613530565b915050606083015184820360608601526137368282613530565b915050608083015160808501528091505092915050565b6020815260006123c360208301846136dc565b6000806040838503121561377357600080fd5b82356001600160401b0381111561378957600080fd5b61379585828601613444565b92505060208301356137a6816135fd565b809150509250929050565b600080604083850312156137c457600080fd5b82356001600160401b038111156137da57600080fd5b6137e685828601613444565b95602094909401359450505050565b6000815160e0845261380a60e0850182613530565b9050602083015184820360208601526138238282613530565b91505060408301516040850152606083015184820360608601526138478282613530565b915050608083015184820360808601526138618282613530565b60a0858101516001600160a01b03169087015260c09485015115159490950193909352509192915050565b6000602080830181845280855180835260408601915060408160051b870101925083870160005b828110156138e157603f198886030184526138cf8583516137f5565b945092850192908501906001016138b3565b5092979650505050505050565b60008060006060848603121561390357600080fd5b83356001600160401b038082111561391a57600080fd5b61392687838801613444565b9450602086013591508082111561393c57600080fd5b5061394986828701613444565b925050604084013561395a816135fd565b809150509250925092565b6020815260006123c360208301846137f5565b6000602080830181845280855180835260408601915060408160051b870101925083870160005b828110156138e157603f198886030184526139bb8583516136dc565b9450928501929085019060010161399f565b6000806000606084860312156139e257600080fd5b83356001600160401b03808211156139f957600080fd5b613a0587838801613444565b94506020860135915080821115613a1b57600080fd5b613a2787838801613444565b93506040860135915080821115613a3d57600080fd5b50613a4a86828701613444565b9150509250925092565b60008060408385031215613a6757600080fd5b8235613a72816135fd565b915060208301356137a6816135fd565b634e487b7160e01b600052603260045260246000fd5b600181811c90821680613aac57607f821691505b602082108103613acc57634e487b7160e01b600052602260045260246000fd5b50919050565b6000808354613ae081613a98565b60018281168015613af85760018114613b0d57613b3c565b60ff1984168752821515830287019450613b3c565b8760005260208060002060005b85811015613b335781548a820152908401908201613b1a565b50505082870194505b50929695505050505050565b634e487b7160e01b600052601160045260246000fd5b600060018201613b7057613b70613b48565b5060010190565b6020808252602b908201527f4f6e6c7920636f6e7472616374206f776e65722063616e20706572666f726d2060408201526a3a3434b99030b1ba34b7b760a91b606082015260800190565b601f8211156119e857600081815260208120601f850160051c81016020861015613be95750805b601f850160051c820191505b81811015613c0857828155600101613bf5565b505050505050565b81516001600160401b03811115613c2957613c2961342e565b613c3d81613c378454613a98565b84613bc2565b602080601f831160018114613c725760008415613c5a5750858301515b600019600386901b1c1916600185901b178555613c08565b600085815260208120601f198616915b82811015613ca157888601518255948401946001909101908401613c82565b5085821015613cbf5787850151600019600388901b60f8161c191681555b5050505050600190811b01905550565b600060208284031215613ce157600080fd5b5051919050565b600060208284031215613cfa57600080fd5b815180151581146136d557600080fd5b818103818111156123c6576123c6613b48565b808201808211156123c6576123c6613b48565b818103613d3b575050565b613d458254613a98565b6001600160401b03811115613d5c57613d5c61342e565b613d6a81613c378454613a98565b6000601f821160018114613d9e5760008315613d865750848201545b600019600385901b1c1916600184901b178455613e03565b600085815260209020601f19841690600086815260209020845b83811015613dd85782860154825560019586019590910190602001613db8565b5085831015613df65781850154600019600388901b60f8161c191681555b50505060018360011b0184555b5050505050565b634e487b7160e01b600052603160045260246000fd5b6213519560ea1b815260008351613e3e81600385016020880161350c565b602d60f81b6003918401918201528351613e5f81600484016020880161350c565b01600401949350505050565b6253535360e81b815260008351613e3e81600385016020880161350c565b600082613ea657634e487b7160e01b600052601260045260246000fd5b50069056fe7a797877767574737271706f6e6d6c6b6a696867666564636261393837363534333231305a595857565554535251504f4e4d4c4b4a494847464544434241303132333435363738396162636465666768696a6b6c6d6e6f707172737475767778797a4142434445464748494a4b4c4d4e4f505152535455565758595a393837363534333231305a595857565554535251504f4e4d4c4b4a4948474645444342417a797877767574737271706f6e6d6c6b6a6968676665646362616162636465666768696a6b6c6d6e6f707172737475767778797a4142434445464748494a4b4c4d4e4f505152535455565758595a303132333435363738394142434445464748494a4b4c4d4e4f505152535455565758595a30313233343536373839a2646970667358221220b43aa0e32f0485dd90fc576adfe09ad74488df1ac093864a0ff529a1bab1acc664736f6c634300081300337a797877767574737271706f6e6d6c6b6a696867666564636261393837363534333231305a595857565554535251504f4e4d4c4b4a494847464544434241303132333435363738396162636465666768696a6b6c6d6e6f707172737475767778797a4142434445464748494a4b4c4d4e4f505152535455565758595a4f6e6c7920636f6e7472616374206f776e65722063616e20706572666f726d20393837363534333231305a595857565554535251504f4e4d4c4b4a4948474645444342417a797877767574737271706f6e6d6c6b6a6968676665646362616162636465666768696a6b6c6d6e6f707172737475767778797a4142434445464748494a4b4c4d4e4f505152535455565758595a303132333435363738394142434445464748494a4b4c4d4e4f505152535455565758595a30313233343536373839",
  "linkReferences": {},
  "deployedLinkReferences": {}
}